:100000000C9435000C945D000C945D000C945D0024
:100010000C945D000C945D000C945D000C945D00EC
:100020000C945D000C945D000C945D000C945D00DC
:100030000C945D000C945D000C945D000C945D00CC
:100040000C94B0010C945D000C9420020C94FA0105
:100050000C945D000C945D000C945D000C945D00AC
:100060000C945D000C945D007C0311241FBECFEF47
:10007000D8E0DEBFCDBF11E0A0E0B1E0EAE1F8E0FA
:1000800002C005900D92A433B107D9F721E0A4E393
:10009000B1E001C01D92AA3DB207E1F710E0C5E34F
:1000A000D0E004C02197FE010E940004C433D107B0
:1000B000C9F70E9452020C940B040C9400003FB745
:1000C000F8948091390190913A01A0913B01B0914F
:1000D0003C0126B5A89B05C02F3F19F00196A11D34
:1000E000B11D3FBFBA2FA92F982F8827820F911DCE
:1000F000A11DB11DBC01CD0142E0660F771F881F15
:10010000991F4A95D1F70895CF92DF92EF92FF920F
:100110000F931F93CF93DF936C017A018B01C0E0A3
:10012000D0E0CE15DF0589F0D8016D918D01D601A3
:10013000ED91FC910190F081E02DC6010995892B8C
:1001400011F47E0102C02196ECCFC701DF91CF915F
:100150001F910F91FF90EF90DF90CF900895089539
:1001600080E090E00895FC01538D448D252F30E010
:10017000842F90E0821B930B541710F0CF960895B4
:1001800001970895FC01918D828D981761F0828D01
:10019000DF01A80FB11D5D968C91928D9F5F9F73BB
:1001A000928F90E008958FEF9FEF0895FC01918D5D
:1001B000828D981731F0828DE80FF11D858D90E0CA
:1001C00008958FEF9FEF0895FC01918D228D892F67
:1001D00090E0805C9F4F821B91098F73992708954F
:1001E0008DE391E00E94E40021E0892B09F420E0F6
:1001F000822F0895FC01848DDF01A80FB11DA35A41
:10020000BF4F2C91848D90E001968F739927848F36
:10021000A689B7892C93A089B1898C9180648C932D
:10022000938D848D981306C00288F389E02D808118
:100230008F7D80830895EF92FF920F931F93CF934A
:10024000DF93EC0181E0888F9B8D8C8D981305C026
:10025000E889F989808185FD24C0F62E0B8D10E098
:100260000F5F1F4F0F731127E02E8C8DE8120CC00B
:100270000FB607FCFACFE889F989808185FFF5CFB1
:10028000CE010E94FA00F1CF8B8DFE01E80FF11D27
:10029000E35AFF4FF0820B8FEA89FB8980818062ED
:1002A00007C0EE89FF896083E889F98980818064CD
:1002B000808381E090E0DF91CF911F910F91FF90BB
:1002C000EF900895CF93DF93EC01888D8823C9F0D8
:1002D000EA89FB89808185FD05C0A889B9898C914F
:1002E00086FD0FC00FB607FCF5CF808185FFF2CFEA
:1002F000A889B9898C9185FFEDCFCE010E94FA00C3
:10030000E7CFDF91CF91089580E090E0892B29F02D
:100310000E94F00081110C9400000895009769F08C
:10032000FC0101900020E9F73197AF01481B590B00
:10033000BC018DE391E00C94840080E090E008958E
:10034000CF93DF930E948E01EC0182E191E00E9445
:100350008E018C0F9D1FDF91CF9108950E9406049E
:100360001F920F920FB60F9211242F933F938F93EA
:100370009F93AF93BF938091350190913601A091E7
:100380003701B09138013091340123E0230F2D372C
:1003900020F40196A11DB11D05C026E8230F029689
:1003A000A11DB11D20933401809335019093360136
:1003B000A0933701B09338018091390190913A01AF
:1003C000A0913B01B0913C010196A11DB11D80930C
:1003D000390190933A01A0933B01B0933C01BF9146
:1003E000AF919F918F913F912F910F900FBE0F90E2
:1003F0001F9018951F920F920FB60F9211242F93F2
:100400003F934F935F936F937F938F939F93AF939C
:10041000BF93EF93FF938DE391E00E94FA00FF9169
:10042000EF91BF91AF919F918F917F916F915F916C
:100430004F913F912F910F900FBE0F901F901895E5
:100440001F920F920FB60F9211242F938F939F93A9
:10045000EF93FF93E0914D01F0914E018081E09187
:100460005301F091540182FD12C090818091560198
:100470008F5F8F7320915701821751F0E0915601E1
:10048000F0E0E35CFE4F958F8093560101C08081C0
:10049000FF91EF919F918F912F910F900FBE0F9031
:1004A0001F901895CF93DF93CDB7DEB7A1970FB606
:1004B000F894DEBF0FBECDBF789484B5826084BD52
:1004C00084B5816084BD85B5826085BD85B5816058
:1004D00085BD80916E00816080936E0010928100D6
:1004E0008091810082608093810080918100816091
:1004F0008093810080918000816080938000809152
:10050000B10084608093B1008091B00081608093DD
:10051000B00080917A00846080937A0080917A00A4
:10052000826080937A0080917A00816080937A0063
:1005300080917A00806880937A001092C100E091E7
:100540004D01F0914E0182E08083E0914901F091EC
:100550004A011082E0914B01F0914C018FEC8083B5
:1005600010925501E0915101F091520186E0808393
:10057000E0914F01F0915001808180618083E09192
:100580004F01F0915001808188608083E0914F019C
:10059000F0915001808180688083E0914F01F0915B
:1005A000500180818F7D808390E4392E2AE0C22E15
:1005B000D12CE12CF12C30927C0080917A00806467
:1005C00080937A0080917A0086FDFCCF00917800BC
:1005D0008091790010E0182B4801012E000CAA0828
:1005E000BB0823E030E0D8010E94F90320E034E0AA
:1005F00040E050E00E94A9032130310541F0223053
:10060000310541F0232B51F485E191E005C08BE1E8
:1006100091E002C088E291E00E94A00117FF26C08D
:10062000E0913D01F0913E010190F081E02D6DE2FD
:100630008DE391E0099522273327A901281939096B
:100640004A095B0919A28E010F5D1F4FCA01B9014A
:10065000A70196010E94C803605DF80162938F01B3
:10066000211531054105510589F715C0A5019401F2
:1006700019A28E010F5D1F4FCA01B901A701960192
:100680000E94C803605DF80162938F012115310556
:100690004105510589F7C8010E948E0182E191E070
:1006A0000E948E010E945F002B013C0188EE882E83
:1006B00083E0982EA12CB12C0E945F00DC01CB01BD
:1006C00084199509A609B709883E9340A105B1058B
:1006D00058F0F1E08F1A9108A108B10828EE420EF7
:1006E00023E0521E611C711C81149104A104B10409
:1006F00019F70E9484015FCFEDE3F1E013821282CB
:1007000088EE93E0A0E0B0E084839583A683B7836E
:1007100084E091E09183808385EC90E095878487E5
:1007200084EC90E09787868780EC90E0918B808BBB
:1007300081EC90E0938B828B82EC90E0958B848BA4
:1007400086EC90E0978B868B118E128E138E148E12
:100750000895052E97FB1EF400940E94C00357FDD8
:1007600007D00E94C80307FC03D04EF40C94C003CA
:1007700050954095309521953F4F4F4F5F4F0895CD
:1007800090958095709561957F4F8F4F9F4F0895FD
:10079000A1E21A2EAA1BBB1BFD010DC0AA1FBB1F85
:1007A000EE1FFF1FA217B307E407F50720F0A21BF7
:1007B000B30BE40BF50B661F771F881F991F1A9464
:1007C00069F760957095809590959B01AC01BD018E
:1007D000CF010895A29FB001B39FC001A39F700DE8
:1007E000811D1124911DB29F700D811D1124911D39
:1007F00008950E94EA03B7FF0895821B930B0895A2
:10080000EE0FFF1F0590F491E02D099481E090E038
:0A081000F8940C940B04F894FFCF49
:10081A00000000001B018400B3006201E400C20072
:10082A00D6000D0A00466C6F6F64005261696E2033
:10083A005761726E696E67004E6F74205261696EFD
:04084A00696E67006C
:00000001FF
