:100000000C9453000C947B000C947B000C947B00AC
:100010000C947B000C947B000C947B000C947B0074
:100020000C947B000C947B000C947B000C947B0064
:100030000C947B000C947B000C947B000C947B0054
:100040000C9459020C947B000C94C9020C94A302EA
:100050000C947B000C947B000C947B000C947B0034
:100060000C947B000C947B0000000000250028000D
:100070002B0000000000240027002A0004040404D0
:100080000404040402020202020203030303030342
:10009000010204081020408001020408102001021F
:1000A00004081020FB0211241FBECFEFD8E0DEBFF2
:1000B000CDBF11E0A0E0B1E0E6E9F8E002C00590B4
:1000C0000D92A032B107D9F721E0A0E2B1E001C062
:1000D0001D92A83CB207E1F710E0C3E5D0E004C0F0
:1000E0002197FE010E943E04C235D107C9F70E9444
:1000F0005D030C9449040C9400008E3008F08E507F
:100100008770806480937C0080917A008064809303
:100110007A0080917A0086FDFCCF80917800209152
:10012000790090E0922B08953FB7F89480912501D3
:1001300090912601A0912701B091280126B5A89B96
:1001400005C02F3F19F00196A11DB11D3FBFBA2F69
:10015000A92F982F8827820F911DA11DB11DBC01C9
:10016000CD0142E0660F771F881F991F4A95D1F78E
:100170000895CF92DF92EF92FF920F931F93CF9348
:10018000DF936C017A018B01C0E0D0E0CE15DF0572
:1001900089F0D8016D918D01D601ED91FC9101900E
:1001A000F081E02DC6010995892B11F47E0102C072
:1001B0002196ECCFC701DF91CF911F910F91FF9056
:1001C000EF90DF90CF900895089580E090E008953B
:1001D000FC01538D448D252F30E0842F90E0821B4D
:1001E000930B541710F0CF96089501970895FC01D2
:1001F000918D828D981761F0828DDF01A80FB11D5E
:100200005D968C91928D9F5F9F73928F90E0089581
:100210008FEF9FEF0895FC01918D828D981731F03B
:10022000828DE80FF11D858D90E008958FEF9FEF8F
:100230000895FC01918D228D892F90E0805C9F4F65
:10024000821B91098F739927089589E291E00E949A
:10025000190121E0892B09F420E0822F0895FC0187
:10026000848DDF01A80FB11DA35ABF4F2C91848D3F
:1002700090E001968F739927848FA689B7892C9374
:10028000A089B1898C9180648C93938D848D98130F
:1002900006C00288F389E02D80818F7D80830895D8
:1002A000EF92FF920F931F93CF93DF93EC0181E0C6
:1002B000888F9B8D8C8D981305C0E889F989808182
:1002C00085FD24C0F62E0B8D10E00F5F1F4F0F73BE
:1002D0001127E02E8C8DE8120CC00FB607FCFACF68
:1002E000E889F989808185FFF5CFCE010E942F0131
:1002F000F1CF8B8DFE01E80FF11DE35AFF4FF08225
:100300000B8FEA89FB898081806207C0EE89FF89B3
:100310006083E889F98980818064808381E090E04E
:10032000DF91CF911F910F91FF90EF900895CF93A0
:10033000DF93EC01888D8823C9F0EA89FB898081ED
:1003400085FD05C0A889B9898C9186FD0FC00FB6BF
:1003500007FCF5CF808185FFF2CFA889B9898C9100
:1003600085FFEDCFCE010E942F01E7CFDF91CF9126
:10037000089580E090E0892B29F00E9425018111E9
:100380000C9400000895009769F0FC010190002092
:10039000E9F73197AF01481B590BBC0189E291E0A5
:1003A0000C94B90080E090E008958F929F92AF92F4
:1003B000BF92CF92DF92EF92FF920F931F93CF9352
:1003C000DF93CDB7DEB7A1970FB6F894DEBF0FBEAF
:1003D000CDBF6C01990FEE08FF08F7FE31C0E09128
:1003E0002901F0912A010190F081E02D6DE289E26E
:1003F00091E009958C0122273327A9012C193D0989
:100400004E095F0919A2CE0181967C019AE0892EDE
:10041000912CA12CB12CCA01B901A50194010E9413
:100420001C04605DF70162937F01211531054105D0
:10043000510589F7CF010E94C301080F191F1EC083
:10044000A701960119A28E010F5D1F4F8AE0C82EE9
:10045000D12CE12CF12CCA01B901A70196010E940F
:100460001C04605DF80162938F012115310541057F
:10047000510589F7CF010E94C3018C0182E191E00F
:100480000E94C301800F911FA1960FB6F894DEBFA2
:100490000FBECDBFDF91CF911F910F91FF90EF90D5
:1004A000DF90CF90BF90AF909F908F9008950E9463
:1004B00044041F920F920FB60F9211242F933F9373
:1004C0008F939F93AF93BF938091210190912201CD
:1004D000A0912301B09124013091200123E0230F4A
:1004E0002D3720F40196A11DB11D05C026E8230F6C
:1004F0000296A11DB11D20932001809321019093AC
:100500002201A0932301B0932401809125019091B1
:100510002601A0912701B09128010196A11DB11DCE
:100520008093250190932601A0932701B093280181
:10053000BF91AF919F918F913F912F910F900FBEDF
:100540000F901F9018951F920F920FB60F921124C3
:100550002F933F934F935F936F937F938F939F93CB
:10056000AF93BF93EF93FF9389E291E00E942F0135
:10057000FF91EF91BF91AF919F918F917F916F917B
:100580005F914F913F912F910F900FBE0F901F9051
:1005900018951F920F920FB60F9211242F938F93DD
:1005A0009F93EF93FF93E0913901F0913A0180819D
:1005B000E0913F01F091400182FD12C09081809155
:1005C00042018F5F8F7320914301821751F0E091B8
:1005D0004201F0E0E75DFE4F958F8093420101C03C
:1005E0008081FF91EF919F918F912F910F900FBE7E
:1005F0000F901F90189510922C0110922B0188EEED
:1006000093E0A0E0B0E080932D0190932E01A093A1
:100610002F01B093300184E091E090932A01809300
:10062000290185EC90E0909336018093350184ECAC
:1006300090E0909338018093370180EC90E09093A4
:100640003A018093390181EC90E090933C018093D2
:100650003B0182EC90E090933E0180933D0186EC5B
:1006600090E09093400180933F01109242011092DC
:1006700043011092440110924501E0E9F0E0249119
:10068000ECE7F0E08491882399F090E0880F991FBF
:10069000FC01EE58FF4FA591B491FC01E859FF4FC2
:1006A000859194918FB7F894EC91E22BEC938FBFE6
:1006B0001092C7011092C6010895789484B58260A3
:1006C00084BD84B5816084BD85B5826085BD85B5F6
:1006D000816085BD80916E00816080936E00109274
:1006E00081008091810082608093810080918100EF
:1006F0008160809381008091800081608093800080
:100700008091B10084608093B1008091B0008160DD
:100710008093B00080917A00846080937A00809109
:100720007A00826080937A0080917A008160809361
:100730007A0080917A00806880937A001092C100DC
:10074000E0913901F0913A0182E08083E091350136
:10075000F09136011082E0913701F09138018FEC71
:10076000808310924101E0913D01F0913E0186E0CD
:100770008083E0913B01F0913C0180818061808326
:10078000E0913B01F0913C01808188608083E091A1
:100790003B01F0913C01808180688083E0913B01C6
:1007A000F0913C0180818F7D80838091C6010E9401
:1007B0007D0044974CF48091C6010E947D000E9408
:1007C000D50185E191E008C08091C6010E947D00BD
:1007D0000E94D5018AE191E00E94C30182E191E08B
:1007E0000E94C3010E9494004B015C0180EDC82E61
:1007F00087E0D82EE12CF12C0E949400DC01CB0183
:1008000088199909AA09BB09883E9340A105B10539
:1008100058F021E0C21AD108E108F10888EE880EEC
:1008200083E0981EA11CB11CC114D104E104F104A1
:1008300019F70E94B901B9CFA1E21A2EAA1BBB1B5E
:10084000FD010DC0AA1FBB1FEE1FFF1FA217B3079C
:10085000E407F50720F0A21BB30BE40BF50B661FB2
:10086000771F881F991F1A9469F760957095809576
:1008700090959B01AC01BD01CF010895EE0FFF1FC4
:100880000590F491E02D099481E090E0F8940C94A7
:060890004904F894FFCFBB
:10089600000000005001B900E80097011901F700B7
:1008A6000B010D0A004E756974004A6F75720000DF
:00000001FF
