:100000000C9453000C944B020C9424020C947B002F
:100010000C947B000C947B000C947B000C947B0074
:100020000C947B000C947B000C947B000C947B0064
:100030000C947B000C947B000C947B000C947B0054
:100040000C94DA010C947B000C9498020C947202CC
:100050000C947B000C947B000C947B000C947B0034
:100060000C947B000C947B0000000000250028000D
:100070002B0000000000240027002A0004040404D0
:100080000404040402020202020203030303030342
:10009000010204081020408001020408102001021F
:1000A000040810206C0311241FBECFEFD8E0DEBF80
:1000B000CDBF11E0A0E0B1E0ECE4F7E002C00590B4
:1000C0000D92A033B107D9F721E0A0E3B1E001C060
:1000D0001D92A63DB207E1F710E0C3E5D0E004C0F1
:1000E0002197FE010E949903C235D107C9F70E94EA
:1000F000CA020C94A4030C940000E9E3F1E0A08987
:10010000B18982E08C93A485B5851C92A685B785BC
:100110008FEC8C93108EA489B58986E08C93A2898C
:10012000B3898C9180618C93A289B3898C9188600A
:100130008C93A289B3898C9180688C930288F3890F
:10014000E02D80818F7D808308950895CF92DF9286
:10015000EF92FF920F931F93CF93DF936C017A017D
:100160008B01C0E0D0E0CE15DF0589F0D8016D919C
:100170008D01D601ED91FC910190F081E02DC60139
:100180000995892B11F47E0102C02196ECCFC7019D
:10019000DF91CF911F910F91FF90EF90DF90CF9063
:1001A0000895089580E090E00895FC01538D448DFA
:1001B000252F30E0842F90E0821B930B541710F012
:1001C000CF96089501970895FC01918D828D98171F
:1001D00061F0828DDF01A80FB11D5D968C91928D2B
:1001E0009F5F9F73928F90E008958FEF9FEF089528
:1001F000FC01918D828D981731F0828DE80FF11DF1
:10020000858D90E008958FEF9FEF0895FC01918D0B
:10021000228D892F90E0805C9F4F821B91098F7304
:100220009927089589E391E00E94060121E0892B36
:1002300009F420E0822F0895FC01848DDF01A80FCE
:10024000B11DA35ABF4F2C91848D90E001968F73FE
:100250009927848FA689B7892C93A089B1898C911D
:1002600080648C93938D848D981306C00288F389E3
:10027000E02D80818F7D80830895EF92FF920F9310
:100280001F93CF93DF93EC0181E0888F9B8D8C8D42
:10029000981305C0E889F989808185FD24C0F62E70
:1002A0000B8D10E00F5F1F4F0F731127E02E8C8D09
:1002B000E8120CC00FB607FCFACFE889F9898081F3
:1002C00085FFF5CFCE010E941C01F1CF8B8DFE0181
:1002D000E80FF11DE35AFF4FF0820B8FEA89FB898B
:1002E0008081806207C0EE89FF896083E889F9898F
:1002F00080818064808381E090E0DF91CF911F91C5
:100300000F91FF90EF900895CF93DF93EC01888DCC
:100310008823C9F0EA89FB89808185FD05C0A88909
:10032000B9898C9186FD0FC00FB607FCF5CF80818F
:1003300085FFF2CFA889B9898C9185FFEDCFCE01D9
:100340000E941C01E7CFDF91CF91089580E090E0FB
:10035000892B29F00E94120181110C94000008954C
:10036000CF93DF93009779F0FC0101900020E9F72B
:100370003197AF01481B590BBC0189E391E00E9402
:10038000A600EC0102C0C0E0D0E042E050E066E12F
:1003900071E089E391E00E94A6008C0F9D1FDF9120
:1003A000CF9108950E947D0089E191E00C94B00105
:1003B0000E949F031F920F920FB60F9211242F934A
:1003C0003F938F939F93AF93BF938091350190910B
:1003D0003601A0913701B09138013091340123E00A
:1003E000230F2D3720F40196A11DB11D05C026E86D
:1003F000230F0296A11DB11D209334018093350176
:1004000090933601A0933701B09338018091300169
:1004100090913101A0913201B09133010196A11D5B
:10042000B11D8093300190933101A0933201B093BC
:100430003301BF91AF919F918F913F912F910F9079
:100440000FBE0F901F9018951F920F920FB60F922C
:1004500011242F933F934F935F936F937F938F93C9
:100460009F93AF93BF93EF93FF93E0910201F091BD
:1004700003010995FF91EF91BF91AF919F918F91EA
:100480007F916F915F914F913F912F910F900FBE90
:100490000F901F9018951F920F920FB60F92112474
:1004A0002F933F934F935F936F937F938F939F937C
:1004B000AF93BF93EF93FF93E0910001F09101019F
:1004C0000995FF91EF91BF91AF919F918F917F918E
:1004D0006F915F914F913F912F910F900FBE0F90B1
:1004E0001F9018951F920F920FB60F9211242F9301
:1004F0003F934F935F936F937F938F939F93AF93AC
:10050000BF93EF93FF9389E391E00E941C01FF9159
:10051000EF91BF91AF919F918F917F916F915F917B
:100520004F913F912F910F900FBE0F901F901895F4
:100530001F920F920FB60F9211242F938F939F93B8
:10054000EF93FF93E0914901F0914A018081E0919E
:100550004F01F091500182FD12C0908180915201B3
:100560008F5F8F7320915301821751F0E0915201F8
:10057000F0E0E75CFE4F958F8093520101C08081CF
:10058000FF91EF919F918F912F910F900FBE0F9040
:100590001F901895789484B5826084BD84B581607D
:1005A00084BD85B5826085BD85B5816085BD80913E
:1005B0006E00816080936E001092810080918100B6
:1005C00082608093810080918100816080938100AE
:1005D000809180008160809380008091B100846070
:1005E0008093B1008091B00081608093B0008091D1
:1005F0007A00846080937A0080917A008260809390
:100600007A0080917A00816080937A0080917A00EC
:10061000806880937A001092C1000E947D0081E280
:1006200091E00E94B001E2E9F0E02491EEE7F0E011
:1006300084918823C1F090E0880F991FFC01EE5847
:10064000FF4FC591D491FC01E859FF4FA591B4919A
:100650009FB7F8948881E22FE0958E2388838C9150
:10066000E823EC939FBF82ED91E09093010180938A
:100670000001809169008C7F80936900E89A02ED07
:1006800011E0C5EAD0E00E947D0088E291E00E947E
:10069000B00183B7817F846083BF83B7816083BFEC
:1006A00010930101009300018091690083608093A1
:1006B0006900E89A83B7816083BF889583B78E7F8E
:1006C00083BF83B78E7F83BFE898D0930101C09327
:1006D00000010E94A601D7CFE9E3F1E01382128264
:1006E00088EE93E0A0E0B0E084839583A683B7838F
:1006F00088E091E09183808385EC90E09587848702
:1007000084EC90E09787868780EC90E0918B808BDB
:1007100081EC90E0938B828B82EC90E0958B848BC4
:1007200086EC90E0978B868B118E128E138E148E32
:100730000895EE0FFF1F0590F491E02D099481E0DC
:0C07400090E0F8940C94A403F894FFCF10
:10074C00A500A500000000003D01A600D500840115
:10075C000601E400F8000D0A00696E7369646521F6
:10076C000073746172742100736C656570210000F4
:00000001FF
