:100000000C945D000C9485000C9485000C94850084
:100010000C9485000C9485000C9485000C9485004C
:100020000C9485000C9485000C9485000C9485003C
:100030000C9485000C9485000C9485000C9485002C
:100040000C94A2020C9485000C9412030C94EC0204
:100050000C9485000C9485000C9485000C9485000C
:100060000C9485000C94850000000008000201003B
:100070000003040700000000000000000000000072
:10008000250028002B0000000000240027002A0083
:10009000040404040404040402020202020203032E
:1000A0000303030301020408102040800102040836
:1000B0001020010204081020120411241FBECFEFEB
:1000C000D8E0DEBFCDBF11E0A0E0B1E0E8E9F8E0A4
:1000D00002C005900D92A033B107D9F721E0A0E34B
:1000E000B1E001C01D92A63DB207E1F710E0CDE5F9
:1000F000D0E004C02197FE010E943F04CC35D10717
:10010000C9F70E9444030C944A040C94000090E048
:10011000FC01EC55FF4F2491FC01E057FF4F849107
:10012000882399F090E0880F991FFC01EA57FF4F50
:10013000A591B491FC01E458FF4F859194918FB73C
:10014000F894EC91E22BEC938FBF089590E0FC01C2
:10015000E859FF4F3491FC01EC55FF4F2491FC010D
:10016000E057FF4FE491EE2309F43BC0332339F10C
:10017000333091F038F43130A9F0323001F584B5E4
:100180008F7D12C0373091F03830A1F03430B9F49F
:10019000809180008F7D03C0809180008F77809355
:1001A00080000DC084B58F7784BD09C08091B000F8
:1001B0008F7703C08091B0008F7D8093B000F0E016
:1001C000EE0FFF1FE458FF4FA591B4918FB7F8943D
:1001D000EC91611103C020952E2301C02E2B2C938E
:1001E0008FBF08953FB7F894809135019091360103
:1001F000A0913701B091380126B5A89B05C02F3FCB
:1002000019F00196A11DB11D3FBFBA2FA92F982F3C
:100210008827820F911DA11DB11DBC01CD0142E0B7
:10022000660F771F881F991F4A95D1F708958F92FF
:100230009F92AF92BF92CF92DF92EF92FF926B01AB
:100240007C010E94F2004B015C01C114D104E10465
:10025000F104F1F00E94F200DC01CB018819990948
:10026000AA09BB09883E9340A105B10570F321E0BE
:10027000C21AD108E108F10888EE880E83E0981EC2
:10028000A11CB11CC114D104E104F10419F7DDCFA4
:10029000FF90EF90DF90CF90BF90AF909F908F90A6
:1002A0000895CF92DF92EF92FF920F931F93CF9317
:1002B000DF936C017A018B01C0E0D0E0CE15DF0541
:1002C00089F0D8016D918D01D601ED91FC910190DD
:1002D000F081E02DC6010995892B11F47E0102C041
:1002E0002196ECCFC701DF91CF911F910F91FF9025
:1002F000EF90DF90CF900895089580E090E008950A
:10030000FC01538D448D252F30E0842F90E0821B1B
:10031000930B541710F0CF96089501970895FC01A0
:10032000918D828D981761F0828DDF01A80FB11D2C
:100330005D968C91928D9F5F9F73928F90E0089550
:100340008FEF9FEF0895FC01918D828D981731F00A
:10035000828DE80FF11D858D90E008958FEF9FEF5E
:100360000895FC01918D228D892F90E0805C9F4F34
:10037000821B91098F739927089589E391E00E9468
:10038000B10121E0892B09F420E0822F0895FC01BE
:10039000848DDF01A80FB11DA35ABF4F2C91848D0E
:1003A00090E001968F739927848FA689B7892C9343
:1003B000A089B1898C9180648C93938D848D9813DE
:1003C00006C00288F389E02D80818F7D80830895A7
:1003D000EF92FF920F931F93CF93DF93EC0181E095
:1003E000888F9B8D8C8D981305C0E889F989808151
:1003F00085FD24C0F62E0B8D10E00F5F1F4F0F738D
:100400001127E02E8C8DE8120CC00FB607FCFACF36
:10041000E889F989808185FFF5CFCE010E94C70167
:10042000F1CF8B8DFE01E80FF11DE35AFF4FF082F3
:100430000B8FEA89FB898081806207C0EE89FF8982
:100440006083E889F98980818064808381E090E01D
:10045000DF91CF911F910F91FF90EF900895CF936F
:10046000DF93EC01888D8823C9F0EA89FB898081BC
:1004700085FD05C0A889B9898C9186FD0FC00FB68E
:1004800007FCF5CF808185FFF2CFA889B9898C91CF
:1004900085FFEDCFCE010E94C701E7CFDF91CF915D
:1004A000089580E090E0892B29F00E94BD01811120
:1004B0000C9400000895CF93DF93009779F0FC012E
:1004C00001900020E9F73197AF01481B590BBC019F
:1004D00089E391E00E945101EC0102C0C0E0D0E04C
:1004E00042E050E062E171E089E391E00E94510155
:1004F0008C0F9D1FDF91CF9108950F931F93CF9382
:10050000DF93C7E0D0E0082F10E0B8010C2E02C046
:10051000759567950A94E2F7617077278AE00E94E3
:10052000A60061E08CE00E94A60060E08CE00E94E2
:10053000A600219750F7DF91CF911F910F91089559
:100540000E9445041F920F920FB60F9211242F9311
:100550003F938F939F93AF93BF938091310190917D
:100560003201A0913301B09134013091300123E088
:10057000230F2D3720F40196A11DB11D05C026E8DB
:10058000230F0296A11DB11D2093300180933101EC
:1005900090933201A0933301B093340180913501DF
:1005A00090913601A0913701B09138010196A11DBB
:1005B000B11D8093350190933601A0933701B0931C
:1005C0003801BF91AF919F918F913F912F910F90E3
:1005D0000FBE0F901F9018951F920F920FB60F929B
:1005E00011242F933F934F935F936F937F938F9338
:1005F0009F93AF93BF93EF93FF9389E391E00E94A2
:10060000C701FF91EF91BF91AF919F918F917F9122
:100610006F915F914F913F912F910F900FBE0F906F
:100620001F9018951F920F920FB60F9211242F93BF
:100630008F939F93EF93FF93E0914901F0914A01CB
:100640008081E0914F01F091500182FD12C09081B4
:10065000809152018F5F8F7320915301821751F067
:10066000E0915201F0E0E75CFE4F958F80935201DC
:1006700001C08081FF91EF919F918F912F910F90F9
:100680000FBE0F901F901895789484B5826084BD3A
:1006900084B5816084BD85B5826085BD85B5816086
:1006A00085BD80916E00816080936E001092810004
:1006B00080918100826080938100809181008160BF
:1006C0008093810080918000816080938000809180
:1006D000B10084608093B1008091B000816080930C
:1006E000B00080917A00846080937A0080917A00D3
:1006F000826080937A0080917A00816080937A0092
:1007000080917A00806880937A001092C1008CE01A
:100710000E9487008BE00E9487008AE00E94870089
:1007200089E00E948700E0914901F0914A0182E04E
:100730008083E0914501F09146011082E0914701EC
:10074000F09148018FEC808310925101E0914D01AE
:10075000F0914E0186E08083E0914B01F0914C01D5
:10076000808180618083E0914B01F0914C01808118
:1007700088608083E0914B01F0914C01808180681A
:100780008083E0914B01F0914C0180818F7D8083CB
:1007900085E191E00E945B028BE191E00E945B02A7
:1007A00060E08BE00E94A60082E00E947D0261E092
:1007B0008BE00E94A60068EB7BE080E090E00E9466
:1007C000170183E291E00E945B0260E08BE00E94EF
:1007D000A60088E00E947D0261E08BE00E94A600F6
:1007E00068EB7BE080E090E00E9417018BE291E0F3
:1007F0000E945B0260E08BE00E94A60080E00E9405
:100800007D0261E08BE00E94A60068EE73E080E06C
:1008100090E00E94170184E191E00E945B020E9437
:100820005102B6CFE9E3F1E01382128288EE93E041
:10083000A0E0B0E084839583A683B78384E091E051
:100840009183808385EC90E09587848784EC90E0A9
:100850009787868780EC90E0918B808B81EC90E08D
:10086000938B828B82EC90E0958B848B86EC90E06E
:10087000978B868B118E128E138E148E0895EE0F29
:10088000FF1F0590F491E02D099481E090E0F89429
:080890000C944A04F894FFCF18
:1008980000000000E801510180012F02B1018F0121
:1008A800A3010D0A0073746172740076616E6E653F
:1008B80020310076616E6E6520320066696E000038
:00000001FF
