:100000000C945D000C9485000C9485000C94850084
:100010000C9485000C9485000C9485000C9485004C
:100020000C9485000C9485000C9485000C9485003C
:100030000C9485000C9485000C9485000C9485002C
:100040000C949B030C9485000C940B040C94E50316
:100050000C9485000C9485000C9485000C9485000C
:100060000C9485000C94850000000008000201003B
:100070000003040700000000000000000000000072
:10008000250028002B0000000000240027002A0083
:10009000040404040404040402020202020203032E
:1000A0000303030301020408102040800102040836
:1000B00010200102040810203D0411241FBECFEFC0
:1000C000D8E0DEBFCDBF11E0A0E0B1E0EAECFBE09C
:1000D00002C005900D92A634B107D9F721E0A6E43D
:1000E000B1E001C01D92A93FB207E1F710E0CDE5F4
:1000F000D0E004C02197FE010E94D805CC35D1077D
:10010000C9F70E948A040C94E3050C94000090E067
:10011000FC01EC55FF4F2491FC01E057FF4F849107
:10012000882399F090E0880F991FFC01EA57FF4F50
:10013000A591B491FC01E458FF4F859194918FB73C
:10014000F894EC91E22BEC938FBF089590E0FC01C2
:10015000E859FF4F3491FC01EC55FF4F2491FC010D
:10016000E057FF4FE491EE2309F43BC0332339F10C
:10017000333091F038F43130A9F0323001F584B5E4
:100180008F7D12C0373091F03830A1F03430B9F49F
:10019000809180008F7D03C0809180008F77809355
:1001A00080000DC084B58F7784BD09C08091B000F8
:1001B0008F7703C08091B0008F7D8093B000F0E016
:1001C000EE0FFF1FE458FF4FA591B4918FB7F8943D
:1001D000EC91611103C020952E2301C02E2B2C938E
:1001E0008FBF08953FB7F89480914B0190914C01D7
:1001F000A0914D01B0914E0126B5A89B05C02F3F9F
:1002000019F00196A11DB11D3FBFBA2FA92F982F3C
:100210008827820F911DA11DB11DBC01CD0142E0B7
:10022000660F771F881F991F4A95D1F708958F92FF
:100230009F92AF92BF92CF92DF92EF92FF926B01AB
:100240007C010E94F2004B015C01C114D104E10465
:10025000F104F1F00E94F200DC01CB018819990948
:10026000AA09BB09883E9340A105B10570F321E0BE
:10027000C21AD108E108F10888EE880E83E0981EC2
:10028000A11CB11CC114D104E104F10419F7DDCFA4
:10029000FF90EF90DF90CF90BF90AF909F908F90A6
:1002A0000895CF92DF92EF92FF920F931F93CF9317
:1002B000DF936C017A018B01C0E0D0E0CE15DF0541
:1002C00089F0D8016D918D01D601ED91FC910190DD
:1002D000F081E02DC6010995892B11F47E0102C041
:1002E0002196ECCFC701DF91CF911F910F91FF9025
:1002F000EF90DF90CF900895089580E090E008950A
:10030000FC01538D448D252F30E0842F90E0821B1B
:10031000930B541710F0CF96089501970895FC01A0
:10032000918D828D981761F0828DDF01A80FB11D2C
:100330005D968C91928D9F5F9F73928F90E0089550
:100340008FEF9FEF0895FC01918D828D981731F00A
:10035000828DE80FF11D858D90E008958FEF9FEF5E
:100360000895FC01918D228D892F90E0805C9F4F34
:10037000821B91098F73992708958FE491E00E9461
:10038000B10121E0892B09F420E0822F0895FC01BE
:10039000848DDF01A80FB11DA35ABF4F2C91848D0E
:1003A00090E001968F739927848FA689B7892C9343
:1003B000A089B1898C9180648C93938D848D9813DE
:1003C00006C00288F389E02D80818F7D80830895A7
:1003D000EF92FF920F931F93CF93DF93EC0181E095
:1003E000888F9B8D8C8D981305C0E889F989808151
:1003F00085FD24C0F62E0B8D10E00F5F1F4F0F738D
:100400001127E02E8C8DE8120CC00FB607FCFACF36
:10041000E889F989808185FFF5CFCE010E94C70167
:10042000F1CF8B8DFE01E80FF11DE35AFF4FF082F3
:100430000B8FEA89FB898081806207C0EE89FF8982
:100440006083E889F98980818064808381E090E01D
:10045000DF91CF911F910F91FF90EF900895CF936F
:10046000DF93EC01888D8823C9F0EA89FB898081BC
:1004700085FD05C0A889B9898C9186FD0FC00FB68E
:1004800007FCF5CF808185FFF2CFA889B9898C91CF
:1004900085FFEDCFCE010E94C701E7CFDF91CF915D
:1004A000089580E090E0892B29F00E94BD01811120
:1004B0000C94000008952F923F924F925F926F929A
:1004C0007F928F929F92AF92BF92CF92DF92EF92E4
:1004D000FF920F931F93CF93DF93682ED62F722E28
:1004E000502E41112FC02A2D412C471409F45CC015
:1004F000212C312C822E912CB401022C02C0759536
:1005000067950A94E2F761707727862D0E94A6000E
:1005100061E08D2F0E94A60060E08D2F0E94A60052
:100520008FEF281A380A88E02816310429F7C85FA7
:100530009501A601B701852D912F0C2F0E94B005C2
:100540004394D3CF413081F5C22FCC0FCC0FCC0FC9
:10055000C850412C471441F19501A601B701852DE2
:10056000912F0C2F0E94B00587E0882E912C222E0F
:10057000312CB101082C02C0759567950A94E2F7F9
:1005800061707727862D0E94A60061E08D2F0E9462
:10059000A60060E08D2F0E94A60081E0881A9108D5
:1005A00040F7C8504394D6CFDF91CF911F910F9160
:1005B000FF90EF90DF90CF90BF90AF909F908F9083
:1005C0007F906F905F904F903F902F900895AF92E3
:1005D000BF92CF92DF92EF92FF920F931F93CF9330
:1005E000DF93CCEED1E02095309540955095609505
:1005F000709580959095E8812E23E9813E23EA81CC
:100600004E23EB815E23EC816E23ED817E23EE8110
:100610008E23EF819E23288339834A835B836C83F7
:100620007D838E839F8360E088850E94A600A880DA
:10063000B980CA80DB80EC80FD800E811F812C8513
:100640004B856A8589850E945B0261E08885DF9120
:10065000CF911F910F91FF90EF90DF90CF90BF90BF
:10066000AF900C94A600AF92BF92CF92DF92EF9220
:10067000FF920F931F93CF93DF93CCEED1E0E881ED
:100680002E2BE9813E2BEA814E2BEB815E2BEC81F8
:100690006E2BED817E2BEE818E2BEF819E2B28839E
:1006A00039834A835B836C837D838E839F8360E081
:1006B00088850E94A600A880B980CA80DB80EC8073
:1006C000FD800E811F812C854B856A8589850E945E
:1006D0005B0261E08885DF91CF911F910F91FF90C0
:1006E000EF90DF90CF90BF90AF900C94A600CF9387
:1006F000DF93009779F0FC0101900020E9F7319732
:10070000AF01481B590BBC018FE491E00E945101DD
:10071000EC0102C0C0E0D0E042E050E062E171E0F4
:100720008FE491E00E9451018C0F9D1FDF91CF91CA
:1007300008950E94DE051F920F920FB60F921124AA
:100740002F933F938F939F93AF93BF9380914701D4
:1007500090914801A0914901B0914A013091460120
:1007600023E0230F2D3720F40196A11DB11D05C0F4
:1007700026E8230F0296A11DB11D20934601809308
:10078000470190934801A0934901B0934A01809199
:100790004B0190914C01A0914D01B0914E010196F9
:1007A000A11DB11D80934B0190934C01A0934D016D
:1007B000B0934E01BF91AF919F918F913F912F9137
:1007C0000F900FBE0F901F9018951F920F920FB6AB
:1007D0000F9211242F933F934F935F936F937F93C7
:1007E0008F939F93AF93BF93EF93FF938FE491E029
:1007F0000E94C701FF91EF91BF91AF919F918F919F
:100800007F916F915F914F913F912F910F900FBE0C
:100810000F901F9018951F920F920FB60F921124F0
:100820002F938F939F93EF93FF93E0915F01F0914C
:1008300060018081E0916501F091660182FD12C046
:100840009081809168018F5F8F7320916901821779
:1008500051F0E0916801F0E0E15BFE4F958F8093ED
:10086000680101C08081FF91EF919F918F912F913D
:100870000F900FBE0F901F901895CF93DF93EFE46A
:10088000F1E01382128288EE93E0A0E0B0E084836E
:100890009583A683B78384E091E09183808385EC80
:1008A00090E09587848784EC90E09787868780EC3A
:1008B00090E0918B808B81EC90E0938B828B82EC2B
:1008C00090E0958B848B86EC90E0978B868B118ED5
:1008D000128E138E148ECCEED1E08BE088878AE0E6
:1008E00089878CE08A8781E08B8782E08C871882F9
:1008F00019821A821B821C821D821E821F828BE03B
:100900000E9487008A850E9487008985DF91CF91A8
:100910000C948700789484B5826084BD84B581602E
:1009200084BD85B5826085BD85B5816085BD8091BA
:100930006E00816080936E00109281008091810032
:10094000826080938100809181008160809381002A
:10095000809180008160809380008091B1008460EC
:100960008093B1008091B00081608093B00080914D
:100970007A00846080937A0080917A00826080930C
:100980007A0080917A00816080937A0080917A0069
:10099000806880937A001092C1008CE00E948700EA
:1009A0008BE00E9487008AE00E948700E0915F014F
:1009B000F091600182E08083E0915B01F0915C0145
:1009C0001082E0915D01F0915E018FEC80831092C6
:1009D0006701E0916301F091640186E08083E0911A
:1009E0006101F0916201808180618083E091610109
:1009F000F0916201808188608083E0916101F091D3
:100A00006201808180688083E0916101F0916201E0
:100A100080818F7D808385E191E00E94770322E0D1
:100A200030E040E050E060E070E080E090E00E9464
:100A300033032091EC01227030E040E050E060E0B0
:100A400070E080E090E0A2E00E94CC0509F472C062
:100A500068EB7BE080E090E00E94170122E030E04C
:100A600040E050E060E070E080E090E00E94E7024B
:100A70002091EC01227030E040E050E060E070E056
:100A800080E090E0A2E00E94CC0509F058C068E840
:100A900073E180E090E00E94170120E032E040E046
:100AA00050E060E070E080E090E00E94330330911D
:100AB000ED01327020E040E050E060E070E080E066
:100AC00090E0211532404105510561057105810510
:100AD0009105D1F168EB7BE080E090E00E94170186
:100AE00020E032E040E050E060E070E080E090E044
:100AF0000E94E7023091ED01327020E040E050E0CA
:100B000060E070E080E090E0211532404105510541
:100B10006105710581059105E1F468EB7BE080E0FA
:100B200090E00E94170184E191E00E9477030E9407
:100B3000510271CF8BE191E00E94770389CF85E26A
:100B400091E00E947703A3CF8FE291E00E947703A8
:100B5000C1CF8AE391E00E947703DFCF97FB10F8C3
:100B6000169400080F93083098F00850232F342F64
:100B7000452F562F672F782F892F902DF4CF05946E
:100B800097958795779567955795479537952795C5
:100B90000A95AAF70F9108950024A7FD00942A173B
:100BA00030054005500560057005800590050895E5
:100BB000EE0FFF1F0590F491E02D099481E090E085
:0A0BC000F8940C94E305F894FFCFBD
:100BCA0000000000E801510180012F02B1018F01EC
:100BDA00A3010D0A0073746172740032206F757676
:100BEA00657274210032206665726DC3A9210031D5
:100BFA0030206F7576657274210031302066657217
:060C0A006DC3A9210000EA
:00000001FF
